:020000040800F2
:100000000032002045010008B1220008B322000898
:10001000B7220008BB220008BF2200080000000031
:10002000000000000000000000000000C3220008E3
:10003000C522000800000000C7220008172700089A
:100040005F0100085F0100085F0100085F01000810
:100050005F0100085F0100085F0100085F01000800
:100060005F0100085F0100085F0100085F010008F0
:100070005F0100085F0100085F0100085F010008E0
:100080005F0100085F0100085F0100085F010008D0
:100090005F0100085F0100085F0100085F010008C0
:1000A0005F0100085F0100085F0100085F010008B0
:1000B000D33A00085F010008E14400085F0100082E
:1000C0005F0100085F0100085F0100085F01000890
:1000D0005F010008A5320008A33900085F0100088D
:1000E0005F0100085F0100085F0100085F01000870
:1000F0005F0100085F0100085F0100085F01000860
:100100005F0100085F0100085F0100085F0100084F
:100110005F0100085F0100085F0100085F0100083F
:100120005F0100085F0100085F0100085F0100082F
:10013000DFF80CD006F0DAFB004800478D210008FC
:10014000003200200648804706480047FEE7FEE7E9
:10015000FEE7FEE7FEE7FEE7FEE7FEE7FEE7FEE777
:1001600047020008310100080CB500200190009002
:100170006C48006840F480306A49086000BF6948F4
:10018000006800F4003000900198401C0190009835
:1001900018B90198B0F5A06FF1D16248006800F479
:1001A000003010B10120009001E000200090009884
:1001B000012843D15C48006840F010005A490860AB
:1001C0000846006820F0030008600846006840F018
:1001D0000200086053484068524948600846406839
:1001E00048600846406840F48060486008464068BF
:1001F00020F47C1048600846406840F4E8104860ED
:100200000846006840F08070086000BF45480068FC
:1002100000F000700028F9D04248406820F0030048
:10022000404948600846406840F00200486000BF0E
:100230003C48406800F00C000828F9D10CBD10B50E
:10024000FFF792FF10BD10B53648006840F001007E
:1002500034490860084640683449084031494860DC
:1002600008460068324908402E4908600846006880
:1002700020F4802008600846406820F4FE004860B2
:100280004FF41F008860FFF7DAFF4FF00060294944
:10029000086010BD10B5002100200022214B5B68D2
:1002A00003F00C0121B1042906D0082928D107E068
:1002B000214B224C236027E01F4B204C236023E07E
:1002C000184B5B6803F47010164B5B6803F48032C4
:1002D000022303EB904022B9194B4343174C236090
:1002E0000DE0104B5B6803F4003323B1144B434320
:1002F000124C236003E0104B4343104C236003E097
:100300000D4B0E4C236000BF00BF064B5B68C3F370
:1003100003130C4CE15C094B1B68CB40074C23607A
:1003200010BD000000100240002002400000FFF855
:10033000FFFFF6FE08ED00E000127A00000000204A
:1003400000093D000400002031490143314A116099
:10035000704770B5002100230F22C47804B32D4CE0
:10036000246804F4E064C4F5E064210AC1F10403E4
:10037000CA40447804FA03F1847814402143090107
:10038000254C0678A155047804F01F050124AC40E3
:1003900005786D11AD0005F1E025C5F8004109E0D3
:1003A000047804F01F050124AC401C4D067876113A
:1003B00045F8264070BD1A4A0A400243154B1B1FE0
:1003C0001A60704739B1134A121D12680243114B6B
:1003D0001B1D1A6006E00F4A121D126882430D4B66
:1003E0001B1D1A607047042808D14FF0E0210969ED
:1003F00041F004014FF0E022116107E04FF0E021ED
:10040000096921F004014FF0E022116170470000FA
:100410000000FA050CED00E000E400E080E100E0FF
:1004200080FFFF1F10B50446CC48844208D101214B
:10043000042000F04FFD0021042000F04BFD46E0B9
:10044000C748844208D10121082000F043FD002163
:10045000082000F03FFD3AE0C248844208D1012163
:10046000102000F037FD0021102000F033FD2EE0B9
:10047000BD48844208D10121202000F02BFD00213D
:10048000202000F027FD22E0B848844208D1012155
:10049000402000F01FFD0021402000F01BFD16E071
:1004A000B348844208D10121802000F013FD0021CF
:1004B000802000F00FFD0AE0AE48844207D1012100
:1004C000801500F007FD0021A01500F003FD10BD10
:1004D00010B50121084600F0FDFC0021012000F0CC
:1004E000F9FC10BD2DE9F041024600250026002050
:1004F00000230024002791F803C00CF00F0591F8A9
:1005000003C00CF0100CBCF1000F03D091F802C036
:100510004CEA050591F800C0BCF1000F31D0146819
:1005200000202BE04FF0010C0CFA00F3B1F800C0F2
:100530000CEA03069E4220D183004FF00F0C0CFA08
:1005400003F7BC4305FA03FC4CEA040491F803C02A
:10055000BCF1280F06D14FF0010C0CFA00FCC2F8D8
:1005600014C00AE091F803C0BCF1480F05D14FF068
:10057000010C0CFA00FCC2F810C0401C0828D1D3B2
:100580001460B1F800C0BCF1FF0F34DD54680020E6
:100590002EE000F1080C4FF0010808FA0CF3B1F856
:1005A00000C00CEA03069E4221D183004FF00F0CDD
:1005B0000CFA03F7BC4305FA03FC4CEA040491F877
:1005C00003C0BCF1280F05D100F1080C08FA0CF8A3
:1005D000C2F8148091F803C0BCF1480F07D100F1B4
:1005E000080C4FF0010808FA0CF8C2F81080401C03
:1005F0000828CED35460BDE8F0814FF6FF7101802A
:10060000022181700421C170704702460020936866
:100610000B400BB1012000E00020704701468868C4
:1006200080B2704702460020D3680B400BB1012016
:1006300000E0002070470146C86880B27047016141
:100640007047416170470AB1016100E04161704744
:10065000C16070474FF480320A43826181618261D8
:1006600082698269704702460020434B18684FF642
:100670008073184040EA021008433F4B18607047EF
:100680003E49C8617047F0B50A46002300240021A6
:10069000002500F00046B6F1004F02D1364EF16958
:1006A00001E0354E7168C0F3034583B200F4401693
:1006B000B6F5401F08D121F070612F4E766826F004
:1006C00070662D4F7E6012E000F48016B6F5801F34
:1006D00006D1032606FA05F4A14341F0706106E055
:1006E000460D360103FA06F6B14341F0706122B1BE
:1006F000460D360103FA06F6314300F00046B6F126
:10070000004F02D11C4EF16101E01B4E7160F0BD43
:1007100030B500228B071C0F0F2303FA04F2164B8F
:1007200008338C1053F824309343134C08348D1045
:1007300044F8253023468C1053F824308C07240FBE
:1007400000FA04F423430C4C08348D1044F825308F
:1007500030BD0A49DC3108607047000000080140E4
:10076000000C01400010014000140140001801403D
:10077000001C014000200140000001400000204218
:1007800010B50446F748844209D10121480500F01C
:10079000AEFB00214FF4001000F0A9FB08E001219E
:1007A000880500F0A4FB00214FF4800000F09FFBBF
:1007B00010BD2DE9F04385B004460D460026B14634
:1007C0000427DFF8A483A6884FF6C0700640684669
:1007D00000F0F9FADDF80880E448B8FBF0F01FFA01
:1007E00080F946EA0906A68020884FF6FE71084087
:1007F00020800026DE49286888420CD828684000FE
:10080000B8FBF0F087B2042F00DA04273E4309F169
:100810000100208427E0E8884BF6FF71884206D16A
:10082000286800EB4000B8FBF0F087B209E02868C8
:1008300000EBC00101EB0010B8FBF0F087B247F409
:100840008047C7F30B0008B947F0010747F40040A1
:1008500006434FF4967009FB00F04FF47A7190FB59
:10086000F1F0401C2084A683208840F00100208005
:1008700026884FF6F5300640A88869890843064364
:100880002680A88929890843208105B0BDE8F08326
:1008900041F288310160002181804BF6FF71C180F7
:1008A0000021018141814FF480418181704721B154
:1008B000028842F00102028004E002884FF6FE73D3
:1008C0001A400280704721B1828842F4006282801F
:1008D00004E082884FF2FF731A408280704721B192
:1008E000828842F48052828004E082884EF6FF7350
:1008F0001A408280704721B1028842F480720280DF
:1009000004E002884FF6FF631A400280704721B16D
:10091000028842F40072028004E002884FF6FF531E
:100920001A400280704721B1028842F4806202803E
:1009300004E002884FF6FF331A40028070470A46EF
:10094000002181894FF60173194002F0FE0319431B
:100950008181704721B1828942F00102828104E0E5
:1009600082894FF6FE731A408281704721B1028856
:1009700042F04002028004E002884FF6BF731A4042
:10098000028070471AB183880B43838002E083881A
:100990008B4383807047018270470146088AC0B24A
:1009A000704712B141F0010102E04FF6FE731940A9
:1009B0000182704708B5024600200090009200981E
:1009C000084400900098008808BD21B1028842F4D4
:1009D0000042028003E00288C2F30E0202807047E8
:1009E000B1F5006F04D1028842F40062028004E095
:1009F00002884FF2FF731A4002807047B1F5005F22
:100A000004D1028842F40052028004E002884DF6CC
:100A1000FF731A400280704721B1028842F480526D
:100A2000028004E002884EF6FF731A40028070478D
:100A3000B1F5006F04D1028842F40062028004E044
:100A400002884FF2FF731A400280704721B102887A
:100A500042F02002028004E002884FF6DF731A4061
:100A6000028070470146088B0012704721B102884E
:100A700042F01002028004E002884FF6EF731A4041
:100A80000280704721B9028842F08002028004E0AF
:100A900002884FF67F731A4002807047B1F5804F8D
:100AA00005D0828B4BF6FF731A40828303E0828B62
:100AB00042F480428283704770B5024600240025CC
:100AC00000230020958A138B1B0445EA030626F0B9
:100AD0007F4404EA01068E4201D1012000E000209B
:100AE00070BD10B501460020002300228B8A0A8BBE
:100AF000120443EA020424F07F4010BD0CB5024604
:100B0000002000230193009300920B0F019321F02A
:100B10007F41019B1BB1009B1433009303E0090C40
:100B2000009B18330093009B1B680B400BB1012006
:100B300000E000200CBD002221F07F42D3438382DD
:100B4000704730B5024600200023948801F0E0652C
:100B500004EA154321F07F41948A0C4054B14BB113
:100B6000012008E00054004000127A0040420F00CB
:100B7000A0860100002030BD002221F07F42D34337
:100B8000838270470E49086070470D49486070477E
:100B90000B49886070474AF6AA20094908607047E7
:100BA0004CF6CC4006490860704701460020044AD4
:100BB000D2680A400AB1012000E00020704700001E
:100BC00000300040DF48006840F00100DD49086067
:100BD00008464068DC490840DA4948600846006831
:100BE000DA490840D74908600846006820F48020A8
:100BF00008600846406820F4FE0048604FF41F007B
:100C000088607047CF49096821F48031CD4A11606E
:100C10001146096821F480211160B0F5803F03D0AE
:100C2000B0F5802F0ED106E0C649096841F4803145
:100C3000C44A116007E0C349096841F4A021C14AD0
:100C4000116000E000BF00BF704710B501460022F0
:100C5000002300204A11012A02D1BA4C236806E081
:100C6000022A02D1B74C236A01E0B64C636A01F054
:100C70001F02012494401C400CB1012000E0002020
:100C800010BD38B5002000900024002500BF3120A1
:100C9000FFF7DBFF05460098401C00900098B0F578
:100CA000A06F01D0002DF2D03120FFF7CEFF08B1A8
:100CB000012400E00024204638BD01460020A14A5E
:100CC000106820F0F80040EAC10010607047A049A9
:100CD00008607047024600209A4B586820F47C1048
:100CE00042EA01031843974B5860704798490866D9
:100CF000704701460020934A506820F003000843E3
:100D0000506070478F48406800F00C007047014603
:100D100000208C4A506820F0F00008435060704773
:100D200001460020874A506820F4E0600843506084
:100D3000704701460020834A506820F4605040EA22
:100D4000C1005060704729B17E4A527A02437D4B00
:100D50005A7204E07B4A527A82437A4B5A72704745
:100D60007B49D8310860704701460020754A5068B9
:100D700020F440400843506070470021714A2032FF
:100D80001170704A82F82010012802D004280AD17C
:100D900004E001216B4A2032117005E00521694A07
:100DA0002032117000E000BF00BF70476949086041
:100DB00070476449096A0143624A11627047654994
:100DC00044390860704730B5002100220024002318
:100DD0005C4D6D6805F00C0121B1042905D008298E
:100DE00023D105E05C4D056022E05B4D05601FE00E
:100DF000544D6D6805F47012524D6D6805F48034E1
:100E0000022505EB92421CB9544D554305600BE099
:100E10004C4D6D6805F400351DB1504D55430560CE
:100E200002E04D4D5543056002E04B4D056000BFAB
:100E300000BF444D6D6805F0F0010909484D6B5C39
:100E40000568DD4045603F4D6D6805F4E061090AC5
:100E5000434D6B5C4568DD4085603A4D6D6805F437
:100E60006051C90A3E4D6B5C4568DD40C560354D3B
:100E70006D6805F44041890B3A4D6B5CC568B5FB64
:100E8000F3F5056130BD29B12E4A526902432D4B5D
:100E90005A6104E02B4A526982432A4B5A617047D7
:100EA00029B1284A92690243264B9A6104E0254AF7
:100EB00092698243234B9A61704729B1214AD269D2
:100EC0000243204BDA6104E01E4AD26982431D4B83
:100ED000DA61704729B11B4AD2680243194BDA60C4
:100EE00004E0184AD2688243164BDA60704729B191
:100EF000144A12690243134B1A6104E0114A126941
:100F00008243104B1A61704712494039086070479C
:100F10000F49C86470470B49C87170470948406A57
:100F200040F0807007494862704701460020054A3A
:100F300092680A400AB1012000E000207047014990
:100F400088727047001002400000FFF8FFFFF6FEB5
:100F5000000042428004424200127A0000093D0033
:100F6000140000202400002010B50446FE488442EE
:100F700008D10121C014FFF7ADFF0021E014FFF7F5
:100F8000A9FFC4E0B4F1804F08D101210846FFF762
:100F9000AEFF00210120FFF7AAFFB8E0F34884422A
:100FA00008D101210220FFF7A2FF00210220FFF754
:100FB0009EFFACE0EE48844208D101210420FFF7F7
:100FC00096FF00210420FFF792FFA0E0E948844249
:100FD00008D101210820FFF78AFF00210820FFF730
:100FE00086FF94E0E448844208D101211020FFF7F5
:100FF0007EFF00211020FFF77AFF88E0DF4884425F
:1010000008D101212020FFF772FF00212020FFF7E7
:101010006EFF7CE0DA48844208D101214014FFF7DA
:1010200059FF00216014FFF755FF70E0D548844256
:1010300009D10121C804FFF74DFF00214FF4002022
:10104000FFF748FF63E0D048844209D10121080539
:10105000FFF740FF00214FF48010FFF73BFF56E001
:10106000CA48844209D101214805FFF733FF002116
:101070004FF40010FFF72EFF49E0C548844208D125
:1010800001214020FFF733FF00214020FFF72FFF11
:101090003DE0C048844208D101218020FFF727FFAE
:1010A00000218020FFF723FF31E0BB48844208D1B4
:1010B00001218015FFF71BFF0021A015FFF717FF87
:1010C00025E0B648844209D101210804FFF702FF58
:1010D00000214FF48030FFF7FDFE18E0B048844255
:1010E00009D101214804FFF7F5FE00214FF400303B
:1010F000FFF7F0FE0BE0AB48844208D101218804E1
:10110000FFF7E8FE00214FF48020FFF7E3FE10BD5B
:1011100000220288944B98420ED0994B98420BD0F3
:10112000B0F1804F08D0914B984205D0904B984237
:1011300002D0904B984204D14FF68F731A404B88DF
:101140001A438D4B984207D08C4B984204D04FF6EF
:10115000FF431A40CB881A4302808B8883850B8813
:101160000385814B98420BD0854B984208D08B4B1E
:10117000984205D08A4B984202D08A4B984201D1BE
:101180000B7A038601238382704770B50024002206
:101190000023058C4FF6FE7635400584028C83884B
:1011A000048B4FF68F752C40B51E2C400D882C43B8
:1011B000751E2A400D892A434D882A436A4DA8424C
:1011C0000BD06F4DA84208D0744DA84205D0744D85
:1011D000A84202D0734DA84213D14FF6F7752A40AA
:1011E0004D892A434FF6FB752A408D882A434FF6D6
:1011F000FF652B404FF6FF552B408D892B43CD8942
:101200002B4383800483CD888586028470BD70B5AE
:10121000002400220023058C4FF6EF76354005842C
:10122000028C8388048B48F6FF752C404FF6FF45EF
:101230002C400D884FF6FF7606EA05252C434FF625
:10124000DF752A400D8906EA05152A434D8806EA0E
:1012500005152A43444DA84202D0494DA8421DD14C
:101260004FF67F752A404D894FF6FF7606EA051541
:101270002A434FF6BF752A408D8806EA05152A4392
:101280004FF6FF352B404FF2FF752B408D8906EA54
:1012900085052B43CD8906EA85052B43838004838E
:1012A000CD880587028470BD70B50024002200231C
:1012B000058C4FF6FF6635400584028C8388848B4D
:1012C0004FF68F752C404FF6FC752C400D882C4343
:1012D0004FF6FF552A400D894FF6FF7606EA0525A1
:1012E0002A434D8806EA05252A431F4DA84202D00D
:1012F000234DA8421DD14FF2FF752A404D894FF66C
:10130000FF7606EA05252A434FF6FF352A408D88E9
:1013100006EA05252A434EF6FF752B404DF6FF756C
:101320002B408D8906EA05152B43CD8906EA051564
:101330002B4383808483CD888587028470BD70B5FC
:10134000002200230024058C4EF6FF7635400584EC
:10135000038C8488828B48F6FF752A404FF6FF4540
:101360002A400D8820E00000002C014000040040CD
:1013700000080040000C0040001000400014004035
:1013800000340140004C0140005001400054014035
:1013900000180040001C00400020004000400140B8
:1013A00000440140004801404FF6FF7606EA05255B
:1013B0002A434DF6FF752B400D8906EA05352B4370
:1013C0004D8806EA05352B43FA4DA84202D0FA4D66
:1013D000A84208D14BF6FF752C408D894FF6FF7659
:1013E00006EA85152C4384808283CD88A0F840507E
:1013F000038470BD828B4FF2FF331A408283828B4D
:101400004FF6FF7303EA01231A4382837047F0B556
:101410000C461546002200210026078C4EF6FF7C64
:1014200007EA0C070784828B018C4FF6FF7707EAE7
:10143000043640F6FF473A404FF6FF7707EA0527A4
:101440003A434FF6FF7707EA03373A43D94FB8429A
:101450000ED0D94FB8420BD0B0F1804F08D0D74F43
:10146000B84205D0D64FB84202D0D64FB84206D1C6
:101470004DF6FF77394046F48057394305E047F68B
:10148000FF57394044F48057394382830184F0BDCB
:10149000828B4FF6F3731A408283828B0A438283D6
:1014A0007047F0B50C461546002200210026078C37
:1014B0004FF6FF6C07EA0C070784828B018C4FF60E
:1014C000FF7707EA04264FF60C773A404FF6FF778E
:1014D00007EA03172F433A43B64FB8420ED0B64F30
:1014E000B8420BD0B0F1804F08D0B44FB84205D00D
:1014F000B34FB84202D0B34FB84206D14FF6FF57B0
:10150000394046F48077394305E04FF2FF573940C0
:1015100044F48077394382830184F0BD028B4FF21B
:10152000FF331A400283028B4FF6FF7303EA012355
:101530001A4302837047F0B50C461546002200217D
:101540000026078C4FF6EF7C07EA0C070784028B16
:10155000018C4FF6FF7707EA041640F6FF473A4042
:101560004FF6FF7707EA03373A434FF6FF7707EA6C
:1015700005273A438F4FB8420ED08F4FB8420BD059
:10158000B0F1804F08D08D4FB84205D08C4FB84293
:1015900002D08C4FB84206D14FF6DF77394046F083
:1015A0001007394305E04FF65F77394044F01007E4
:1015B000394302830184F0BD028B4FF6F3731A4066
:1015C0000283028B0A4302837047F0B50C4615462E
:1015D00000220021068C4FF6FE773E400684028BE7
:1015E000018C4FF60C7632407E1C06EA03162E4321
:1015F0003243704EB0420ED06F4EB0420BD0B0F1BD
:10160000804F08D06D4EB04205D06D4EB04202D032
:101610006C4EB04206D14FF6FD76314044F00106E3
:10162000314305E04FF6F576314044F00106314391
:1016300002830184F0BD70B505460C465D488542C5
:101640000ED05D4885420BD0B5F1804F08D05B4885
:10165000854205D05A48854202D05A48854200D179
:1016600000E000BF208850B92389A28861882846FD
:10167000FFF7ABFFE1882846FFF79EFF25E02088B3
:1016800004280AD12389A28861882846FFF753FFDE
:10169000E1882846FFF742FF17E0208808280AD192
:1016A0002389A28861882846FFF7FBFEE188284647
:1016B000FFF7EEFE09E02389A28861882846FFF73C
:1016C000A6FEE1882846FFF795FE70BD2DE9F041A2
:1016D00005460C4600260127608808B9022600E06E
:1016E0000026A088012801D1022700E001272088D8
:1016F000A0B92389A28861882846FFF766FFE188A0
:101700002846FFF759FF23893A4631462846FFF716
:1017100012FFE1882846FFF701FF13E02389A28822
:1017200061882846FFF707FFE1882846FFF7F6FEA5
:1017300023893A4631462846FFF747FFE188284685
:10174000FFF73AFFBDE8F0810A884B881A438B887F
:101750001A43CB881A430B891A434B891A438B8946
:101760001A43A0F8442070474FF6FF718180002192
:101770000180C18041800172704700210180418059
:101780008180C180018141818181C18170470021B7
:1017900001804180012181800021C1800181704749
:1017A0000021018041808180C1800181418181814E
:1017B00070470000002C014000340140000400404C
:1017C00000080040000C004021B1028842F00102F4
:1017D000028004E002884FF6FE731A4002807047D0
:1017E00031B1B0F8442042F40042A0F8442005E0B2
:1017F000B0F84420C2F30E02A0F8442070471AB19A
:1018000083890B43838102E083898B438381704703
:101810008182704741EA0203A0F8483070471AB14C
:1018200083890B43838102E083898B4383817047E3
:1018300001894FF6F8721140018170470A46002174
:1018400001894FF68F73194011430181704730B5FC
:1018500004460D4629462046FFF7F0FF208940F058
:101860000700208130BD2DE9F04104460D461646A3
:101870001F46602D06D13B46012231462046FFF728
:101880005AFE05E03B46012231462046FFF79DFE09
:1018900029462046FFF7D2FF208940F0070020812B
:1018A000BDE8F08130B50C4600210189C9B24FF680
:1018B000FF7505EA0325154325432943018130BD02
:1018C0002DE9F04105460E4617469846002443464A
:1018D0003A4631462846FFF7E5FF2C894FF6F87067
:1018E000044044F007044FF68F70044044F0700445
:1018F0002C81BDE8F081F0B504460D4616461F4622
:101900003B46324629462046FFF7CCFF208940F46B
:1019100080402081F0BD0185828270470A46002107
:1019200001884FF68F731940114301807047F0B55D
:101930000C4615461E460021002200230189028B19
:10194000038C4FF6F877394021434FF6FC473A4075
:1019500040F201173A434FF6DD773B404FF6FF77F1
:1019600007EA06172F433B43018102830384F0BD3E
:101970000A460021018B4FF68F73194011430183F2
:1019800070470A460021018B48F6FF7319404FF655
:10199000FF7303EA02231943018370470A460021BB
:1019A000818B4FF68F7319401143818370470A462C
:1019B0000021818B48F6FF7319404FF6FF7303EA4D
:1019C000022319438183704721B1028842F08002CB
:1019D000028004E002884FF67F731A40028070474D
:1019E00021B1828842F00402828004E082884FF6AE
:1019F000FB731A408280704721B1828842F008024E
:101A0000828004E082884FF6F7731A408280704724
:101A100021B1828842F00102828004E082884FF680
:101A2000FE731A40828070470A460021018B4FF6F0
:101A3000F77319401143018370470A460021018B57
:101A40004FF2FF7319404FF6FF7303EA0223194365
:101A5000018370470A460021818B4FF6F7731940C6
:101A60001143818370470A460021818B4FF2FF7337
:101A700019404FF6FF7303EA02231943818370472D
:101A80000A460021018B4FF6FB7319401143018375
:101A900070470A460021018B4FF6FF3319404FF67D
:101AA000FF7303EA02231943018370470A460021AA
:101AB000818B4FF6FB7319401143818370470A46AF
:101AC0000021818B4FF6FF3319404FF6FF7303EA75
:101AD00002231943818370470A460021018B4FF688
:101AE0007F7319401143018370470A460021018B1F
:101AF000C1F30E014FF6FF7303EA0223194301837A
:101B000070470A460021818B4FF67F7319401143BD
:101B1000818370470A460021818BC1F30E014FF685
:101B2000FF7303EA02231943818370470A460021A9
:101B3000018C4FF6FD7319401143018470470A462A
:101B40000021018C4FF6F77319401143018470474F
:101B50000A460021018C4FF6DF7319404FF6FF73E0
:101B600003EA02131943018470470A460021018CDD
:101B70004FF67F7319404FF6FF7303EA02131943C0
:101B8000018470470A460021018C4FF6FF5319402B
:101B90004FF6FF7303EA02231943018470470A4694
:101BA0000021018C4FF2FF7319404FF6FF7303EAD7
:101BB00002231943018470470A460021018C4DF627
:101BC000FF7319404FF6FF7303EA02331943018490
:101BD000704730B5002301248C40A3B2048C9C4391
:101BE0000484048C02FA01F5ADB22C43048430BDA8
:101BF00030B5002304248C40A3B2048C9C4304849D
:101C0000048C02FA01F5ADB22C43048430BD70B5EA
:101C10000346002000241846183001258D40ACB240
:101C20001D8CA5431D8409B1082909D100EB610071
:101C3000056825F0700505600568154305600EE030
:101C40000D1FC5F34E052844056825F4E0450560E1
:101C500005684FF6FF7606EA02263543056070BD3B
:101C600021B1028842F00202028004E002884FF6AD
:101C7000FD731A400280704721B1028842F00402CD
:101C8000028004E002884FF6FB731A40028070471E
:101C900021B1828842F08002828004E082884FF67F
:101CA0007F731A408280704702884FF6F7731A409C
:101CB000028002880A430280704782884FF68F7341
:101CC0001A40828082880A438280704702894FF6D8
:101CD000F8731A40028102890A430281704702891F
:101CE0004FF67F731A40028102890A4302817047CE
:101CF000818470478185704781867047018770476E
:101D000081877047A0F84010704702884FF6FF4364
:101D10001A40028002880A43028070470146888E7A
:101D200070470146088F70470146888F704701460B
:101D3000B1F8400070470146888C70470146088D15
:101D4000704702460020138A0B400BB1012000E0CF
:101D500000207047CA430282704730B50246002017
:101D600000230024158A05EA0103958905EA010488
:101D700013B10CB1012000E0002030BDCA43028243
:101D80007047000010B50446FB48844209D1012188
:101D90008803FFF79FF800214FF48040FFF79AF87F
:101DA00032E0F648844209D101214804FFF79FF848
:101DB00000214FF40030FFF79AF825E0F048844204
:101DC00009D101218804FFF792F800214FF4802007
:101DD000FFF78DF818E0EB48844209D10121C804CF
:101DE000FFF785F800214FF40020FFF780F80BE0A3
:101DF000E548844208D101210805FFF778F8002161
:101E00004FF48010FFF773F810BD2DE9F04786B04E
:101E100005460E460024A24600BFA1460027B08911
:101E200000B100BF2F462C8A4CF6FF700440F088AA
:101E300004432C82AC894EF6F3100440B0883189FB
:101E40000843718908430443AC81AC8A4FF6FF40D4
:101E50000440B0890443AC8201A8FEF7B4FFC64831
:101E6000874202D1DDF810A001E0DDF80CA0A889BE
:101E700000F4004040B10AEBCA0000EB0A103168E0
:101E80004900B0FBF1F807E00AEBCA0000EB0A10CA
:101E900031688900B0FBF1F86420B8FBF0F0040170
:101EA0002009642101FB1089A88900F4004040B199
:101EB000322000EBC900B0FBF1F000F00700044352
:101EC00008E0322000EB09106421B0FBF1F000F0D3
:101ED0000F0004432C8106B0BDE8F0874FF4165183
:101EE000016000218180C18001810C21418100219C
:101EF0008181704710B502460020108A4FF2FF031F
:101F000018400B884C8823438C882343CC88234378
:101F10001843108210BD0021018041808180C18062
:101F2000704721B1828942F40052828104E08289A3
:101F30004DF6FF731A4082817047F0B503460024C6
:101F400000260025002040F66A17B94200D100BFE4
:101F50001846C1F3421401F01F06012707FA06F5DF
:101F6000012C01D10C3004E0022C01D1103000E032
:101F700014301AB107682F43076002E00768AF43C7
:101F80000760F0BD1AB1838A0B43838202E0838A23
:101F90008B4383827047028A4FF6F0731A400282A5
:101FA000028A0A430282704782894FF2FF731A4005
:101FB000828182890A438281704721B1828942F0FD
:101FC0000202828104E082894FF6FD731A40828109
:101FD0007047028A4FF6DF731A400282028A0A4370
:101FE0000282704721B1028A42F48042028204E0F8
:101FF000028A4BF6FF731A4002827047C1F308024F
:102000008280704701468888C0F308007047818944
:1020100041F0010181817047028BD2B20283028BB1
:1020200042EA012202837047028B02F47F4202835C
:10203000028B0A430283704721B1828A42F0200258
:10204000828204E0828A4FF6DF731A4082827047F0
:1020500021B1828A42F01002828204E0828A4FF625
:10206000EF731A408282704721B1828A42F00802DF
:10207000828204E0828A4FF6F7731A4082827047A8
:1020800021B1828942F40042828103E08289C2F355
:102090000E028281704721B1828A42F400628282FC
:1020A00004E0828A4FF2FF731A4082827047828A6C
:1020B0004FF6FB731A408282828A0A4382827047FB
:1020C00021B1828A42F00202828204E0828A4FF6C3
:1020D000FD731A408282704702460020B1F5007FEE
:1020E00000D100BF13880B400BB1012000E000209D
:1020F000704701F40072B2F5007F00D100BFCA43FF
:102100000280704770B5024600240023002500209D
:1021100040F66A16B14200D100BFC1F3421501F08A
:102120001F03012606FA03F3012D02D196893340DD
:1021300006E0022D02D1168A334001E0968A334030
:102140000C12012606FA04F41688344013B10CB1BF
:10215000012000E0002070BD10B50022002340F6F1
:102160006A14A14200D100BF0A1201249440A3B214
:10217000DC43048010BD00000038014000440040F2
:1021800000480040004C004000500040002500BFC7
:1021900001F0A8F803F08CFB064683E001F0C2F9D9
:1021A00001F03CFB40480078002849D002F058FA82
:1021B0000446002C39D05A2C18D006DC102C0FD035
:1021C000182C07D0382C29D116E0682C20D0982C58
:1021D00024D117E002203549087001F0F3FE23E016
:1021E00003203249087001F0EDFE1DE001202F4967
:1021F000087001F0E7FE17E000202C49087001F09C
:10220000E1FE11E005202949087001F0DBFE0BE03A
:1022100006202649087001F0D5FE05E00420234978
:10222000087001F0CFFE00BF02E00A2000F09AF92A
:10223000681CC5B2142D03D10025022000F044F81B
:102240001A480078082828D2DFE800F0100C0804AB
:1022500014171A1E012002F040FC22E0022002F0B6
:102260003CFC1EE0032002F038FC1AE0304602F08D
:1022700037FA16E003F080FA13E002F082FB10E078
:10228000304603F041FA0CE003F012FB0646002052
:102290000649087001F096FE03E0304602F020FA8D
:1022A00000BF00BF7AE7000051000020500000206E
:1022B000704700BFFEE700BFFEE700BFFEE700BFBC
:1022C000FEE7704770477047012806D15E490968EC
:1022D00081F010015C4A116019E0022806D15B49C7
:1022E000096881F40071594A116010E0032806D191
:1022F0005649096881F40071544A116007E00428C6
:1023000005D15149096881F010014F4A11607047A9
:10231000411EC8B220B910214B4A0832116013E0A7
:10232000012804D14102494A083211600CE0022818
:1023300004D10102454A0832116005E0032803D1A7
:102340001021414A08321160704708B501210C2064
:10235000FEF7A6FD1020ADF800008DF80300032065
:102360008DF80200694638480C38FEF7BBF84FF488
:102370000070ADF80000694634480C38FEF7B2F83A
:102380000120FFF7C5FF0220FFF7C2FF0120FFF782
:102390009BFF0220FFF798FF0120FFF795FF022027
:1023A000FFF792FF08BD012804D11021264A121D13
:1023B000116014E0022804D10102244A121D1160A8
:1023C0000DE0032805D14FF40071204A121D116061
:1023D00005E0042803D110211B4A121D116070472B
:1023E0000146012908D11848006800F0100008B122
:1023F000012070470020FCE7022908D1134800683B
:1024000000F4007008B10120F3E70020F1E7032990
:1024100008D10E48006800F4007008B10120E8E718
:102420000020E6E7042908D10748006800F0100002
:1024300008B10120DDE70020DBE70020D9E710220A
:10244000014B08331A6070470C0801400C0C014026
:1024500070B5002016E0002100EB4002B14B03EB09
:102460008202516000EB400203EB8202916000EBBC
:10247000400203EB8202517000EB400203F822108D
:10248000411CC8B20428E6DBA74909684FF47A73F7
:10249000B1FBF3F2B2F1807F00D31DE022F07F4167
:1024A000491E4FF0E023596159170F23002907DA1D
:1024B0001C07260E9D4C01F00F052D1F665503E0ED
:1024C0001C07250E9A4C655400BF00214FF0E023F5
:1024D00099610721196100BF70BD416851B1416820
:1024E000491E416031B9012141700178012901D1B2
:1024F00081684160704710B58E48006840B18D48D2
:102500000068401E8B49086010B901208A49087094
:10251000002408E004EB4401824A02EB8100FFF74B
:10252000DCFF601CC4B2042CF4DB84480068401C4F
:1025300082490860084600686FF00041884202D175
:1025400000207E49086000F0ECFF7D480078401CC8
:10255000C0B27B4908700A2803DB0020087000F035
:10256000DFFF10BD10B5044604B910BD012C00D129
:102570000224012000F0D3F86E48046000206E4968
:10258000087000F0CCF806E000F0CCFF6A48007854
:10259000012800D100E0F7E700BF00BFE5E7F0B594
:1025A000034600224FF0E02675695F4E3668654F9E
:1025B000B6FBF7F606FB03F400BF4FF0E026B16967
:1025C00010E04FF0E026B06988420BD0884202D27A
:1025D0000E1A324402E02E1A0E4432440146A24240
:1025E00000D300E0EDE700BFF0BD70B504460D4636
:1025F000042C06DB544A55A15CA004F0BBFB00BFD1
:10260000FEE7012000F08BF804EB4400454901EBA4
:102610008000456004EB440001EB800085600020F1
:1026200004EB44013F4A02EB8101487004EB440192
:1026300002F8210000F073F870BD70B504460D4635
:10264000042C06DB514A41A148A004F093FB00BFD3
:10265000FEE7012000F063F804EB4400314901EB90
:102660008000456004EB440001EB800085600020A1
:1026700004EB44012B4A02EB81014870012004EB7A
:10268000440102F82100002000F049F870BD10B5A7
:102690000446042C06DB3E4A2CA134A004F06AFB5D
:1026A00000BFFEE7012000F03AF8002004EB4401EF
:1026B0001C4A02EB8101486004EB440102EB8101FA
:1026C000487004EB440102F8210000F028F810BD26
:1026D0000146042901DB0020704701EB4100114A4B
:1026E00002EB80004078012808D1002001EB410274
:1026F0000C4B03EB820250700120EDE70020EBE76A
:1027000010B5012000F00BF80C480468002000F020
:1027100006F8204610BD10B5FFF7EDFE10BD80F3A2
:1027200010887047641400200000002018ED00E0BD
:1027300000E400E054000020580000205C0000206D
:102740006000002040420F00CA7600082E2E5C2E4A
:102750002E5C557365725C75736172745C62737024
:102760005F74696D65722E63000000004572726FC0
:10277000723A2066696C652025732C2066756E633D
:1027800074696F6E20257328290D0A00D976000818
:10279000EC76000810B5002408E04FF48071F8488A
:1027A000FDF733FF08B9002010BD641CF5488442D2
:1027B000F3D3844207D3F4A004F0DCFA0120FFF73E
:1027C000D1FE0120F0E70120EEE7002001E0411CEE
:1027D00088B20528FBDB704770B5044600251FE072
:1027E00004F0800028B14FF48041F048FDF727FF46
:1027F00004E04FF48041ED48FDF723FF4FF4805192
:10280000EA48FDF71EFF6006040EFFF7DEFF4FF4F7
:102810008051E648FDF713FFFFF7D7FF681CC5B2EC
:10282000082DDDDB70BD10B504464FF40051DF48C4
:10283000FDF707FF2046FFF7CFFF4FF40051DB48BD
:10284000FDF7FDFE10BD70B50446012C09D1102026
:10285000FFF7E9FF4220FFF7E6FFFFF79BFF054682
:1028600022E0022C09D11120FFF7DDFF4220FFF703
:10287000DAFFFFF78FFF054616E0032C09D112207F
:10288000FFF7D1FF4220FFF7CEFFFFF783FF05469A
:102890000AE0042C08D11320FFF7C5FF4220FFF700
:1028A000C2FFFFF777FF0546284670BD10B54FF40D
:1028B0000051BE48FDF7C5FEFF20FFF78DFFFF204A
:1028C000FFF78AFFFF20FFF787FFFF20FFF784FF56
:1028D0004FF40051B548FDF7B2FE10BD10B52021F0
:1028E000B248FDF7ACFE0120FFF73CFE2021AF48C7
:1028F000FDF7A7FE0220FFF735FE2021AB48FDF7CC
:102900009EFE0120FFF72EFE10BD08B54FF40051CA
:10291000A648FDF794FE4FF48051A448FDF78FFEC2
:102920004FF48041A148FDF78AFE01210C20FEF7FB
:10293000B7FA10208DF8030003208DF802004FF441
:102940008050ADF8000069469848FDF7CBFD4FF484
:102950008040ADF8000069469448FDF7C3FD4FF490
:102960000050ADF8000069469048FDF7BBFD2020FF
:10297000ADF8000069468D48FDF7B4FD04208DF8E0
:1029800003004003ADF8000069468848FDF7AAFD42
:102990004FF48070ADF8000069467948FDF7A2FD5C
:1029A0000A20FFF7DFFDFFF799FF0520FFF7DAFDAB
:1029B000FFF77CFF0520FFF7D5FD2020FFF733FF51
:1029C0000820FFF730FF0120FFF73DFF0520FFF74C
:1029D000C9FD08BD70B5002400251AE04FF48051F0
:1029E0007248FDF72EFEFFF7F0FE6006040E4FF46E
:1029F00000416E48FDF709FE012801D1601CC4B2F8
:102A00004FF480516948FDF71AFEFFF7DEFE681C9F
:102A1000C5B2082DE2DB204670BD10B504464FF468
:102A200000516248FDF70DFEC4F30740FFF7D4FEE6
:102A3000C4F30720FFF7D0FEE0B2FFF7CDFE4FF45E
:102A400000515A48FDF7FBFD10BD10B54FF4005181
:102A50005648FDF7F6FDFFF7BDFF04464FF4005161
:102A60005248FDF7ECFD204610BD10B54FF4005163
:102A70004E48FDF7E6FDFFF7ADFF04464FF6FF7049
:102A800000EA0424FFF7A6FF204484B24FF400516B
:102A90004648FDF7D4FD204610BD10B54FF4005157
:102AA0004248FDF7CEFDFFF795FF04462402FFF7ED
:102AB00091FF04442402FFF78DFF04444FF40051BA
:102AC0003A48FDF7BCFD204610BD70B504460D46E2
:102AD000602C13D007DC6CB1102C0CD0202C0BD048
:102AE000302C10D110E0612C0AD0702C07D0712C42
:102AF00009D106E000BF00BF082606E000BF00BF06
:102B000000BF182601E000BF70BD00BF2046FFF7E0
:102B10008AFE082E03D1E8B2FFF785FE02E02846C0
:102B2000FFF77BFF00BFEFE770B50546602D13D0C0
:102B300007DC6DB1102D0CD0202D0BD0302D10D115
:102B400010E0612D0AD0702D07D0712D09D106E05B
:102B500000BF00BF082408E000BF00BF00BF18246A
:102B600003E000BF4FF0FF3070BD00BF45F008002C
:102B7000FFF759FE102C1BD1FFF777FF064620E028
:102B80000008014000093D00544D373730355F578C
:102B90006169744452445928292054696D65204F55
:102BA0007574202E2E2E0D0A00000000000C01402E
:102BB000082C03D1FFF749FF064602E0FFF76DFF3F
:102BC00006463046D0E710B50446012C08D1102047
:102BD000FFF729FE8220FFF726FEFFF7DBFD09E065
:102BE000022C07D11120FFF71EFE8220FFF71BFEEB
:102BF000FFF7D0FD10BD10B50446012C08D1102000
:102C0000FFF711FEC220FFF70EFEFFF7C3FD09E03C
:102C1000022C07D11120FFF706FEC220FFF703FEAA
:102C2000FFF7B8FD10BD70B50446002600251DE075
:102C3000FFF7B0FD012C03D13820FFF7F4FD10E0C1
:102C4000022C03D13920FFF7EEFD0AE0032C03D15B
:102C50003A20FFF7E8FD04E0042C02D13B20FFF707
:102C6000E2FDFFF702FF0646681CC5B2022DDFDB5E
:102C7000304670BD08B54FF4A060FDF765FB252018
:102C80008DF8000001208DF8010003208DF802006E
:102C900001208DF803006846FDF75BFB08BD00B519
:102CA00085B001210420FEF7FBF801218803FEF71F
:102CB000F7F84FF40070ADF8100018208DF81300ED
:102CC00003208DF8120004A9E048FDF70BFC4FF437
:102CD0008060ADF8100004208DF8130004A9DB48D3
:102CE000FDF700FC4FF4E13000900020ADF8040047
:102CF000ADF80600ADF80800ADF80C000C20ADF8FA
:102D00000A006946D248FFF780F8012240F22551B7
:102D1000CF48FFF712F90121CD48FFF702F9402112
:102D2000CB48FFF7E6F905B000BD2DE9FC470446A6
:102D3000012C27D1C7484088C649098800EB0146C5
:102D4000C448C088C349898800EB0147C14840890D
:102D5000C049098900EB0148BE48C089BD4989893D
:102D600000EB01450A2095FBF0F995FBF0F100FB23
:102D7000115A43463A463146B7A0CDE9009A03F0CE
:102D8000F9FF1FE0022C1DD1C0A003F0F3FFC8A083
:102D900003F0F0FFCCA003F0EDFFD4A003F0EAFFB6
:102DA000DFA003F0E7FFE3A003F0E4FFEAA003F0F5
:102DB000E1FFEFA003F0DEFFF44803F0DBFFF4A037
:102DC00003F0D8FFBDE8FC87A148F8490860F8483F
:102DD0004860F84888604FF480608881C88100208E
:102DE00008824882C882088348838882C861086252
:102DF000AFF2C9004862704710B5FFF7E5FFFFF773
:102E00004EFFFFF737FF10BD014609B9E74870478D
:102E1000012901D10020FAE7022901D10020F6E7BB
:102E2000032901D10020F2E7042901D10020EEE7B7
:102E3000052901D10020EAE70020E8E72DE9F0416B
:102E400004460E461746002527E00CE0012000F05E
:102E500043FAB4F81480002000F03EFAA0894045FF
:102E600000DD01E000BFF1E700BF705D228A61680C
:102E70008854012000F030FA208A401C80B2208261
:102E8000A189884201DB00202082A08A401CA08208
:102E9000002000F021FA681C85B2BD42D5DB01227A
:102EA00040F227712068FFF748F8BDE8F0812DE96E
:102EB000F04105460E4617462846FFF7A5FF044693
:102EC0000CB9BDE8F081E06908B1E06980473A4695
:102ED00031462046FFF7B2FF00BFF2E713B50446C4
:102EE000012201A92046FFF7E2FF1CBD70B5044690
:102EF0000D46012000F0F0F9668B002000F0ECF99F
:102F00000EB9002070BD218BA068405C28700120A4
:102F100000F0E2F9208B401C80B22083E1898842D6
:102F200001DB00202083608B401E6083002000F0C6
:102F3000D3F90120E6E770B505460E462846FFF7AF
:102F400063FF04460CB9002070BD31462046FFF7F0
:102F5000CDFFF9E700B503461846FFF755FF0246D7
:102F600002B900BD002010825082908200BFF8E7B5
:102F700000B503461846FFF747FF024602B900BDF9
:102F80000020D0821083508300BFF8E710B58AA0DC
:102F900003F0F0FE984803F0EDFE98A003F0EAFE7F
:102FA000A4A003F0E7FE10BD7047704770B504465B
:102FB00040F225512068FFF7A5F8E8B12068FFF737
:102FC00021F8C5B2E18AA0684554E08A401C80B26D
:102FD000E082E189884201DB0020E082608BE189A8
:102FE000884202DA608B401C608325B1606A10B1B0
:102FF0002846616A884700BF40F227712068FFF7C2
:1030000081F808B3A08A60B9002240F227712068D5
:10301000FEF793FF012240F226612068FEF78DFF44
:103020003FE1638A6268D15C2068FEF7E7FF608A4F
:10303000401C80B26082A189884201DB002060824E
:10304000A08A401EA0822CE106E100000008014099
:10305000003801402800002050483D202535646D8F
:1030600056204F52503D202535646D562020434C4C
:1030700032203D202535646D56202054656D70202A
:103080003D202532642E2564A1E30D00D2D4CFC2A9
:10309000CAC7344720445455A3A8473738302D5663
:1030A00032A3A9B5C4B2CECAFD200D0A00000000AB
:1030B000C4A3CABDA3BACDF8C2E7CDB8B4ABC4A30C
:1030C000CABD0D0A0000000073657276657220614A
:1030D0006464726573733A20636C6F7564646174C1
:1030E000612E7573722E636E0D0A00004C696E6B53
:1030F00020547074653A205443502C204C6F6E67F6
:1031000020436F6E6E656374696F6E2C2045786323
:103110006565642054696D65203130730D0A0000C7
:10312000B4D3C9E8B1B8B5D8D6B7A3BA34200D0A1C
:1031300000000000C9E8B1B8B1E0BAC53A203030AB
:103140003032343938383030303030303030303060
:1031500030310D0A00000000C9E8B1B8C3DCC2EB91
:103160003A206C6450744A7A6968200D0A000000A5
:10317000C9E8B1B8D7EEB4F3D6D8C1ACBDD3B4CE9C
:10318000CAFD3A2036300D0A000000000C8200080B
:1031900044545520CEDECAFDBEDDD6D8C6F4CAB131
:1031A000BCE4203330B7D6D6D30D0A0094140020E7
:1031B000BC140020BC180020BBB6D3ADCAB9D3C321
:1031C00020CBAED6CABCECB2E2C9E8B1B8A3ACB869
:1031D000C3C9E8B1B8D7D4B6AFB2E2C1BF50482036
:1031E0004F525020D3E0C2C820D2D4BCB0CEC2B619
:1031F000C8200D0A00000000AC810008B9A6C4DC9C
:1032000031A3BACAE4B3F6B8F7CFEE414443B2C92A
:10321000D1F9B5C3B5BDB5C4B5E7D1B9D6B5D2D42A
:10322000BCB0D7AABBBBBAF3B5C4B2E2C1BFD6B576
:103230000D0A0000B9A6C4DC32A3BACAE4B3F6CDC5
:10324000F8B9D8C4A3BFE9B5C4C5E4D6C3B2CECAE1
:10325000FD200D0A0000000040F226612068FEF704
:1032600051FFF0B1A08A50B9002240F226612068D7
:10327000FEF763FE206AA0B1206A804711E0638AEE
:103280006268D15C2068FEF7B9FE608A401C80B29B
:103290006082A189884201DB00206082A08A401EF2
:1032A000A08270BD10B50E48FFF780FE10BD70B54E
:1032B00004460D46E1B20020FFF710FE204670BD27
:1032C00038B5044600BF69460020FFF734FE0028E9
:1032D000F9D09DF8000038BD80F3108870470000D9
:1032E0009414002070B5FFF787FDFFF7B1F8FFF7E2
:1032F0002CF801F09BF802F0D2FB4FF4FA60FFF7D4
:1033000031F900F0C9FFFFF741FE00F05BFE00223B
:103310001146122000F054FF01220021242000F069
:103320004FFF02220021362000F04AFF0322002135
:10333000482000F045FF042200215A2000F040FF01
:1033400005220421002000F03BFF06220421122068
:1033500000F036FF07220421242000F031FF08226C
:103360000421362000F02CFF09220421482000F01F
:1033700027FF0A2204215A2000F022FF0B220421F9
:103380006C2000F01DFF4FF4FA60FFF7EBF800F03F
:1033900019FE102365A20021084600F0EDFE10235F
:1033A00066A20321002000F0E7FE102366A206219A
:1033B000002000F0E1FE102367A20621002000F0AB
:1033C000DBFE4FF4FA60FFF7CDF8FFF79EFA01201D
:1033D000FFF739FA0446012C20D10220FEF798FFAE
:1033E00000F0F0FD102360A20021084600F0C4FEAA
:1033F000102362A20221002000F0BEFE102362A270
:103400000421002000F0B8FE102363A20721002051
:1034100000F0B2FE4FF47A70FFF7A4F80220FFF735
:1034200012FA0446012C20D10220FEF771FF00F0B1
:10343000C9FD10235EA20021084600F09DFE102366
:103440004EA20221002000F097FE10234EA204217C
:10345000002000F091FE10234FA20721002000F071
:103460008BFE4FF47A70FFF77DF80420FFF7EBF93D
:103470000446012C20D10220FEF74AFF00F0A2FDF5
:10348000102350A20021084600F076FE10233BA234
:103490000221002000F070FE10233BA20421002036
:1034A00000F06AFE10233CA20721002000F064FE19
:1034B0004FF47A70FFF756F8002520E000F01DFC6D
:1034C000D8B10220FEF724FF00F07CFD102342A2B9
:1034D0000021084600F050FE102343A203210020E3
:1034E00000F04AFE102328A20621002000F044FE2E
:1034F0004FF4FA60FFF736F800E002E06D1C032D90
:10350000DCDD00BF0220FEF74EFF00F04CFF00F0B4
:1035100095FA00F071F800F0B5FA00F015FB70BDF7
:103520007047704710B500F00BFB10BD2057617459
:10353000657220416E616C797A65720020202020CE
:1035400020202056310000002020202050575420F9
:10355000436F2E4C74642E00207777772E73686C3F
:10356000616E79752E636E002020204368616E6E57
:10357000656C2031204552524F52000020202020FF
:10358000414443204552520020204E6F7420436F27
:103590006E6E6563746564002020205379737465D2
:1035A0006D207769316C20726573657400000000CE
:1035B0002020204368616E6E656C20322045525297
:1035C0004F5200002020204368616E6E656C2033EE
:1035D000204552524F52000020202054656D70202B
:1035E0004552524F520000002020202020445331E9
:1035F000384232300000000010B50420B249087093
:10360000002081F8690000F065F910BD2DE9F04750
:10361000AD480179C07801EB00201FFA80F9AA4873
:103620008179407901EB00201FFA80F80024A64838
:1036300002782146641C6B30425403222146641CEC
:1036400042544FF6FF7000EA48073846F91707EB77
:1036500011610912A7EB0121CBB22246641C9A49E1
:103660006B318B54002623E009EB0601974A32F8B0
:103670001100C11700EB1161C1F307232146621C41
:1036800094B2914A6B32535409EB06018F4A32F8D7
:103690001100C11700EB11610912A0EB0121CBB29F
:1036A0002146621C94B2884A6B325354701C86B215
:1036B0004645D9DB214684486B3000F0A3F9054626
:1036C0002846E91705EB1161C1F307232146621C67
:1036D00094B27D4A6B325354E91705EB116109121C
:1036E000A5EB0121CBB22146621C94B2764A6B3223
:1036F000535402217648FCF7A2FF002606E07249E7
:103700006B31885D00F03BF9701C86B2A642F6DB97
:1037100002216F48FCF795FFBDE8F0872DE9F041E5
:10372000002469480179C07801EB002085B2664821
:103730008179407901EB002086B2644820F8156059
:10374000614802782146641C6B30425406222146AF
:10375000641C42542846E91705EB1161C1F30723A5
:103760002246641C58496B318B54E91705EB1161F3
:103770000912A5EB0121CBB22246641C52496B31E0
:103780008B543046F11706EB1161C1F30723224633
:10379000641C4D496B318B54F11706EB1161091212
:1037A000A6EB0121CBB22246641C47496B318B54F6
:1037B000214645486B3000F025F907463846F91791
:1037C00007EB1161C1F307232246641C3E496B31AC
:1037D0008B54F91707EB11610912A7EB0121CBB24A
:1037E0002246641C38496B318B5402213848FCF75F
:1037F00026FF4FF0000809E033496B3111F808004B
:1038000000F0BDF808F101001FFA80F8A045F3DBD5
:1038100002212F48FCF715FFBDE8F08170B52A485A
:1038200090F86A0000B970BD274890F86800801EC3
:1038300081B22548401C00F0E5F80446224890F883
:103840006800401E2049491C0A5C481E90F8680028
:10385000801E085C02EB002085B2AC4229D1481ED4
:103860004078491E0978884222D117488078082874
:103870001DD2DFE800F0040506071011121B16E048
:1038800015E014E0FFF7C2FE0120FEF71DFDC82081
:10389000FEF768FE0BE00AE009E0FFF73FFF0120BA
:1038A000FEF736FDC820FEF75DFE00E000BF00E039
:1038B00000BF0120FEF777FD0020034981F8680072
:1038C00081F86A0000BFAEE7E42400202800002051
:1038D0000008014000B585B001210420FDF7E0FAA1
:1038E00001214804FDF7E9FA0220ADF800000320A9
:1038F0008DF8020010208DF8030069463E48FCF761
:10390000F1FD02213C48FCF79CFE0420ADF80000CC
:1039100003208DF8020018208DF803006946364810
:10392000FCF7E0FD0820ADF8000004208DF803004E
:1039300069463148FCF7D6FD4FF41650019000203F
:10394000ADF80800ADF80A00ADF80C00ADF81000B5
:103950000C20ADF80E0001A92848FEF756FA012206
:1039600040F225512548FEF7E8FA01212348FEF7E9
:10397000D8FA40212148FEF7BCFB05B000BD10B5C8
:10398000044621461D48FEF739FB00BF40211B4875
:10399000FEF7A2FB0028F9D040211848FEF7A9FB4A
:1039A00010BD70B540F225511448FEF7ABFB05463B
:1039B000012D1FD11148001D0088C4B2104890F895
:1039C0006A00012800D170BD0D4890F8681090F889
:1039D0006800401C0A4A82F86800501C44540020C9
:1039E0001146A1F86600084690F86800012801D148
:1039F00081F8690000BFE6E700080140004400408C
:103A0000E424002070B502460C46FF25FF2309E0A0
:103A100012F8010B80EA05010648405C80EA0305C4
:103A20000548435C2000A4F10106B4B2F0D143EA9A
:103A3000052070BDFA760008FA7700080EB501215E
:103A40000846FDF73AFA4FF08040FDF78DFA40F254
:103A5000E730ADF804004720ADF800000020ADF8D5
:103A60000600ADF8020069464FF08040FDF750FBBC
:103A700001218807FDF7A8FE012211469007FDF7F6
:103A8000BEFE0EBD08B54FF4A060FCF75DFC1C2027
:103A90008DF8000001208DF803008DF80100022050
:103AA0008DF802006846FCF754FC26208DF80000D3
:103AB00001208DF803008DF801008DF802006846A2
:103AC000FCF747FC08BD00BF0100A0F10100FBD1DD
:103AD000704710B501218807FEF733F90446012C21
:103AE00019D101218007FEF735F90B4890F86900DC
:103AF00088B10948B0F86600401C0749A1F8660083
:103B00000846B0F86600082805DB002081F8690047
:103B1000012081F86A0010BDE424002070B505463C
:103B20000C4645F25550FDF72DF82846FDF72DF8C7
:103B30002046FDF72DF8FDF72EF8FDF731F870BDA2
:103B400010B5FDF728F810BD10B57D20FDF77DF804
:103B500008B1FDF7E3F940F271210420FFF7DEFF21
:103B600010BD000010B59648006820F470609449BC
:103B700008600846006840F44070086000209149E1
:103B8000086040F2EE20FEF70AFD01208E49C1F8E0
:103B9000A8010F20FEF703FD10BD10B500248848D2
:103BA000006820F47060864908600846006840F4A8
:103BB0000060086004E0601CC4B20120FEF7EFFC66
:103BC00080488038006808B1C82CF4DBC82C01DBC1
:103BD000012010BD002404E0601CC4B20120FEF7E7
:103BE000DEFC78488038006808B9F02CF4DBF02C53
:103BF00001DB0120EDE70020EBE710B5704800681D
:103C000020F470606E4908600846006840F4407017
:103C1000086000206B4908600220FEF7C0FC01200C
:103C20006949C1F8A8016648006820F470606449D9
:103C300008600846006840F4006008600C20FEF749
:103C4000AEFC60488038006808B1012400E0002420
:103C50003220FEF7A4FC204610BD70B500260125D9
:103C600008E0FFF7CAFF0446E00140EA6600C6B27A
:103C7000681CC5B2082DF4DD304670BD70B5044631
:103C80004F48006820F470604D490860084600689D
:103C900040F440700860012520E004F00106641043
:103CA0006EB10020474908600220FEF778FC012031
:103CB0004549C1F8A8013C20FEF771FC0CE000204A
:103CC000404908603C20FEF76AFC01203E49C1F8EB
:103CD000A8010220FEF763FC681CC5B2082DDCDDDC
:103CE00070BD10B5FFF73EFFFFF757FFCC20FFF781
:103CF000C5FF4420FFF7C2FF10BD08B50121082011
:103D0000FDF7CEF84FF48060ADF8000010208DF87C
:103D1000030003208DF8020069462948001FFCF7C4
:103D2000E1FB4FF480612648001FFCF788FCFFF799
:103D300019FFFFF732FF08BD2DE9F84FFFF7D1FF5C
:103D4000FFF710FFFFF729FFCC20FFF797FFBE20FA
:103D5000FFF794FFFFF781FF8346FFF77EFF0446DE
:103D6000072C08DDE043C4B26FEA0B0000F0FF0B44
:103D70004FF0000A01E04FF0010AA1464FEA092086
:103D80000FFA80F909EB0B000FFA80F9484602F0B0
:103D900096FA009002F0EDFA074600220B4B02F073
:103DA0001CFA054602F0C6FA0FFA80F9BAF1000FC4
:103DB00002D04846BDE8F88FC9F1000000B2F9E72B
:103DC000040C0140A8812142008021420000E43F10
:103DD00010B58021F748FCF732FC4021F548FCF78C
:103DE0002EFC4021F348FCF72CFC8021F148FCF725
:103DF00028FC10BD10B58021EE48FCF722FC4021C4
:103E0000EC48FCF71EFC4021EA48FCF718FC802136
:103E1000E848FCF714FC10BD2DE9F04105462C469E
:103E2000002619E027468021E248FCF70AFC07F04B
:103E30008007802F04D14021DE48FCF700FC03E01E
:103E40004021DC48FCF7FDFB6006040E8021D948C8
:103E5000FCF7F5FB701CC6B2082EE3DB8021D548C9
:103E6000FCF7EFFB8021D348FCF7E9FBBDE8F081CC
:103E700010B50446FFF7ACFF7820FFF7CDFF002018
:103E8000FFF7CAFF2046FFF7C7FFFFF7B3FF10BDDC
:103E900010B50446FFF79CFF7820FFF7BDFF4020D8
:103EA000FFF7BAFF2046FFF7B7FFFFF7A3FF10BDEC
:103EB00070B504460D466DB1FFF78AFF7820FFF715
:103EC000ABFF4020FFF7A8FFE0B2FFF7A5FFFFF729
:103ED00091FF0CE0FFF77CFF7820FFF79DFF0020AB
:103EE000FFF79AFFE0B2FFF797FFFFF783FF70BD80
:103EF00070B50646002418E004F1B0000021FFF779
:103F0000D7FF00210846FFF7D3FF00211020FFF75D
:103F1000CFFF002505E001213046FFF7C9FF681CEF
:103F2000C5B2802DF7DB601CC4B2082CE4DB70BD89
:103F300006E041F6650100E0491E0029FCD1401E63
:103F40000028F6D17047014605E0002001E0421C40
:103F5000D0B27B28FBDB0A00A1F10101F5D170474B
:103F600070B504460D4605F1B0000021FFF7A0FF33
:103F7000102141EA14100021FFF79AFF04F00F010D
:103F800041F001000021FFF793FF70BD10B5002143
:103F90008D20FFF78DFF00211420FFF789FF0021FE
:103FA000AF20FFF785FF10BD10B500218D20FFF772
:103FB0007FFF00211020FFF77BFF0021AE20FFF7DD
:103FC00077FF10BD70B5002418E004F1B0000021A7
:103FD000FFF76EFF00210220FFF76AFF002110208B
:103FE000FFF766FF002505E001210020FFF760FFD5
:103FF000681CC5B2802DF7DB601CC4B2082CE4DB62
:1040000070BD70B5002418E004F1B0000021FFF786
:104010004FFF00210220FFF74BFF00211020FFF788
:1040200047FF002505E001210846FFF741FF681C16
:10403000C5B2802DF7DB601CC4B2082CE4DB70BD78
:104040002DE9F04707460E46904699460025002484
:10405000A8F12000C5B27F2F02DD0027B01CC6B238
:10406000B9F1100F24D131463846FFF779FF00240B
:1040700008E004EB0511504A505C0121FFF718FFDE
:10408000601CC4B2082CF4DB701CC1B23846FFF7C8
:1040900067FF002409E004EB05110831464A505C33
:1040A0000121FFF705FF601CC4B2082CF3DB12E00E
:1040B00031463846FFF754FF00240AE005EB45017E
:1040C0003E4A02EB4101085D0121FFF7F1FE601C51
:1040D000C4B2062CF2DBBDE8F08710B50246012021
:1040E00000E050430B00A1F10104E1B2F9D110BD91
:1040F0002DE9FF5F074691461E460E9D4FF0000AD0
:10410000002435E0301B401EC1B20A20FFF7E5FF56
:10411000B9FBF0F00A21B0FBF1F201FB1208BAF191
:10412000000F14D1701EA04211DDB8F1000F0CD1A8
:10413000AB4605EBDB71491001FB0471C8B22B469D
:1041400020220199FFF77CFF10E04FF0010AAB46F7
:1041500005EBDB71491001FB0471C8B208F13001B5
:10416000CAB22B460199FFF76BFF00BF601CC4B2B7
:10417000B442C7DBBDE8FF9F2DE9F04104460F467E
:104180001546984600260FE0AA5D4346394620466C
:10419000FFF756FF04F10800C4B2782C02DD0024BA
:1041A000B81CC7B2701CC6B2A85D0028ECD1BDE82F
:1041B000F081000000080140227B0008FA78000826
:1041C0002DE9F04180460E4615460027314640460F
:1041D000FFF7C6FE00240AE0844A02EB8511085D61
:1041E0000121FFF765FE781CC7B2601CC4B2102C19
:1041F000F2DB701CC1B24046FFF7B2FE00240CE0B7
:104200006900491C794A02EB4111085D0121FFF761
:104210004FFE781CC7B2601CC4B2102CF0DBBDE8A6
:10422000F0812DE9F05F06460F4690461C46DDF80A
:1042300028A04FF0000BE11704EB5171C910A4EB5B
:10424000C10131B92046E11704EB5171C1F3C70533
:1042500006E02046E11704EB5171C910491CCDB2AC
:104260003D4615E029463046FFF77AFEB1460BE0A1
:1042700059460BF1010B1AF801000121FFF718FE56
:1042800009F1010000F0FF09C145F1DB681CC5B26E
:10429000A542E7DBBDE8F09F08B501210420FCF74B
:1042A000FFFDC020ADF8000010208DF803000320B2
:1042B0008DF8020069464E48FCF714F9C0214C48BD
:1042C000FCF7BDF90021AE20FFF7F2FD002102202E
:1042D000FFF7EEFD00211020FFF7EAFD002140204E
:1042E000FFF7E6FD0021B020FFF7E2FD002181206D
:1042F000FFF7DEFD0021FF20FFF7DAFD0021A120FE
:10430000FFF7D6FD0021A620FFF7D2FD0021A8204F
:10431000FFF7CEFD00213F20FFF7CAFD0021AD20B1
:10432000FFF7C6FD00218B20FFF7C2FD00213320DF
:10433000FFF7BEFD0021C820FFF7BAFD0021D32002
:10434000FFF7B6FD00210846FFF7B2FD0021D5209A
:10435000FFF7AEFD00218020FFF7AAFD0021D82045
:10436000FFF7A6FD00210520FFF7A2FD0021D920BF
:10437000FFF79EFD00211F20FFF79AFD0021DA20A4
:10438000FFF796FD00211220FFF792FD0021DB20B0
:10439000FFF78EFD00214020FFF78AFD0021AF20AE
:1043A000FFF786FD08BD10B5FFF70CFE102311A224
:1043B00000210846FFF7E0FE102310A20221002092
:1043C000FFF7DAFE102311A204210020FFF7D4FE2C
:1043D000102312A206210020FFF7CEFE4FF4FA6050
:1043E000FEF7C0F8FFF7EEFD10BD000061000020F1
:1043F00000080140202020205048200020202020BC
:104400004F52502020286D762900000020202020C7
:1044100052432020202870706D2900002020202089
:1044200054656D70202843290000000000B589B054
:1044300001210820FCF734FD01210420FCF73DFD9B
:104440004FF48070ADF8200028208DF82300032061
:104450008DF8220008A99B48FCF744F84FF48071BE
:104460009848FCF7ECF842F21070ADF814004720C1
:10447000ADF810000020ADF81600ADF8120004A948
:104480009148FCF745FE0820ADF804000020ADF887
:1044900006000120ADF808000020ADF80A00032056
:1044A000ADF80C0001A98848FDF7C5F80121864840
:1044B000FDF78AF91E208DF81C0001208DF81D00E3
:1044C00003208DF81E0001208DF81F0007A8FBF7C0
:1044D00040FF012209217C48FDF791F909B000BD98
:1044E00010B501217848FDF738FCF8B1774800781D
:1044F00000F08000D0B17548007820F010007349BA
:1045000008700846007800F00F0020B908460078CF
:1045100040F0400008706D48007800F00F000E2851
:1045200005DA6A480078401C684908700AE0674864
:10453000007820F08000654908700846007800F097
:10454000F000087008216048FDF707FC002810D033
:104550005F48006870B102215B48FDF713FB002142
:104560005948FDF7C5FB5948007840F010005749FD
:10457000087070E05448FDF7D7FB564908800021C9
:104580005148FDF7FFFA5148007800F0100000286C
:104590005BD04E48007800F08000E8B34D480088BA
:1045A000B0F5967F0DDD4B480088B0F5487F08DAFE
:1045B00049480068400048490860084600680860AB
:1045C00043E044480088B0F5AF6F0FDD41480088F4
:1045D000B0F5E16F0ADA4048006840003E490860E3
:1045E0000846006840F0010008602EE03948008865
:1045F00040F69801884228DD3648008840F6282198
:10460000884222DA35480078401C344908702F4827
:10461000007800F0F00000E002E02C49087014E09F
:104620002C48008841F2680188420EDD2948008844
:1046300041F25C21884208DA2448007840F080008A
:10464000224908700020254908702048007820F091
:1046500010001E49087009211B48FDF78FFB10BD93
:1046600070B500261948007800F0400040B31A48A1
:104670000068040E18480068C0F30745E843C0B25C
:10468000A0420ED16CB914480088C0F30724124828
:104690000578E843C0B2A04203D126466420FDF766
:1046A00061FF26B10948007800F0800040B9074852
:1046B000007820F040000549087000200749087084
:1046C000304670BD000C014000080040640300202B
:1046D0002081214266030020680300206C03002033
:1046E0002DE9F04F8DB006460120FEF79CFAADF89B
:1046F0002C000220FEF797FAADF82E000420FEF7FA
:1047000092FAADF83000FFF717FB0446BDF82C0015
:1047100041F2883148434FF6FF7190FBF1F005906C
:10472000BDF82E0041F2883148434FF6FF7190FBEF
:10473000F1F00690BDF8300041F2883148434FF661
:10474000FF7190FBF1F00790002719E0780056F810
:10475000208006EBC700D0F804A0C7F1020105AA2B
:1047600052F8210001F0ABFD5146019001F0BFFC71
:104770008346414601F0F3FC02A941F827007F1C63
:10478000032FE3DB002C01DA604204B2029801F04F
:10479000BDFD00EB80004FF6FF7101EA40050020EF
:1047A000FC49088008464580039801F0AFFD00EB06
:1047B00080004FF6FF7101EA40050020F54988802E
:1047C0000846C580049801F0A1FD00EB80004FF67B
:1047D000FF7101EA40050020EE4908810846458145
:1047E000200C8881CC810598002804DD41F28831B5
:1047F0000598884202DB0FF2A03901E00FF29C39E4
:10480000029801F0B6FD4A46CDE90001E4A108A8EE
:1048100002F0C0FA102308AA00210846FFF7ACFCFA
:104820000698002804DD41F288310698884202DBB0
:104830000FF2643901E00FF26439039801F099FD39
:104840004A46CDE90001DAA108A802F0A3FA102334
:1048500008AA02210020FFF78FFC0798002804DD3A
:1048600041F288310798884202DB0FF22C3901E0CF
:104870000FF22839049801F07CFD4A46CDE9000189
:10488000CFA108A802F086FA102308AA042100206C
:10489000FFF772FCFFF766F9FFF77FF910B10FF22F
:1048A000F82901E00FF2F4290A2094FBF0F100FB53
:1048B000114794FBF0F843464A46C5A108A8009763
:1048C00002F068FA102308AA06210020FFF754FC22
:1048D0004FF44870FDF746FE0020C24908700DB045
:1048E000BDE8F08F70B5FFF7BBFE05466420FDF70D
:1048F00039FE902D32D010DC222D29D006DC022D7D
:1049000020D0102D34D0182D36D12FE0382D31D0B5
:10491000622D15D0682D2FD122E0B02D24D006DCD9
:10492000982D1FD0A22D09D0A82D25D114E0C22D7D
:104930000CD0E02D0ED0E22D1ED105E031241DE07B
:1049400032241BE0352419E0332417E0362415E027
:10495000342413E0372411E038240FE039240DE02B
:104960002E240BE0302409E0232407E0752405E021
:104970006C2403E06F2401E0782400BF00BF2046D0
:1049800070BD2DE9F04F87B00120FEF74CF982464B
:104990000220FEF748F906900420FEF744F905903E
:1049A000FFF7CAF9054641F288300AFB00F04FF6DE
:1049B000FF7190FBF1F641F28831069848434FF6BB
:1049C000FF7190FBF1F741F28831059848434FF6AB
:1049D000FF7190FBF1F8002D01DA684205B2002E5C
:1049E00003DD41F28830864202DB0FF2AC1901E0B0
:1049F0000FF2F41933464A467CA102A802F0CAF924
:104A0000102302AA00210846FFF7B6FB002F03DDA2
:104A100041F28830874202DB0FF27C1901E00FF28D
:104A2000C8193B464A4675A102A802F0B3F9102303
:104A300002AA02210020FFF79FFBB8F1000F03DD5F
:104A400041F28830804502DB0FF24C1901E00FF291
:104A5000981943464A466DA102A802F09BF910231B
:104A600002AA04210020FFF787FBFFF77BF8FFF77E
:104A700094F810B10FF2201901E00FF26C190A201E
:104A800095FBF0F100FB115001900A2095FBF0FB23
:104A900001985B464A464EA1009002A802F07AF9BE
:104AA000102302AA06210020FFF766FB4FF41670C0
:104AB000FDF758FDFFF716FF0446782C0AD06F2C3F
:104AC00008D14FF4FA70FDF74DFDFFF77BFA002097
:104AD0004449087007B0BDE8F08F2DE9F04F9DB054
:104AE00004464E4A07CA1AAB07C34C4A0C3207CADF
:104AF00017AB07C3494A183207CA14AB07C3474A62
:104B00002432D2E900109268CDE912021191434A91
:104B1000303207CA0EAB07C340493C3103C9CDE967
:104B20000C013E49443103C9CDE90A013C480078F3
:104B300006282ED2DFE810F00600A900A8012B02FB
:104B40009B035704601E1AA951F8202035A103A821
:104B500002F020F9102303AA00210846FFF70CFBFE
:104B6000102334A202210020FFF706FB102336A2F7
:104B700004210020FFF700FB601E11A951F820005E
:104B80000090601E14A951F820301AA951F8202075
:104B900064E06BE3280000203F0000003E000000BE
:104BA0002573205048202025302E3266000000005A
:104BB0002573204F525020252E306620206D760020
:104BC000257320434C2020252E32662070706D0006
:104BD00025732054454D202532642E256420204322
:104BE00000000000500000206F00000025732043EB
:104BF0004C202025336420206D7600002573204F43
:104C000052502025336420206D76000025732050FB
:104C100048202025336420206D7600001481000890
:104C20007003002020202020202020257320202019
:104C30000000000020202043616C69627261746989
:104C40006F6E202000000000202020466F7220653B
:104C500078616D706C65202000000000FAA103A847
:104C600002F098F8102303AA06210020FFF784FA27
:104C70004FF47A60FDF776FC0020F64908700120B9
:104C8000F5490870FFF79EF9F0E2032C1BD100BF35
:104C90001023F2A201210020FFF76EFA601E1AA96C
:104CA00051F82020F1A103A802F074F8102303AA00
:104CB00004210020FFF760FA1023EE4A04213C2073
:104CC000FFF75AFA13E0601E1AA951F82020EAA152
:104CD00003A802F05FF8102303AA00210846FFF79B
:104CE0004BFA1023E34A00213C20FFF745FA4FF42A
:104CF0001670FDF737FCFFF7F5FD0546782D0CD053
:104D00006C2D0BD1FFF75EF9DA4801F097F9C7B2C5
:104D10001FB10021781ED74A1154B4E0232D7CD155
:104D2000D44801F08BF9C7B2012F62DBD14802F001
:104D3000B7FCCDE9000101F02FFBD1490860611EED
:104D40000AAA32F8110001F0C3FA8046CC48016883
:104D5000404601F047FB26D8611E0CAA32F811002C
:104D600001F0B6FA8046C6480168404601F030FBC3
:104D700019D8002004E00021BE4A1154411CC8B2D9
:104D8000B842F8DD032C04D100BF0520B2490870F9
:104D900002E00220B04908704FF4FA70FDF7E2FB20
:104DA000FFF710F94CE0FFF70DF91023B5A2002131
:104DB0000846FFF7E1F91023B6A202210020FFF711
:104DC000DBF9601E17A951F820301AA951F82020EC
:104DD000B4A103A801F0DEFF102303AA05210020DF
:104DE000FFF7CAF94FF4FA60FDF7BCFBFFF7EAF8EA
:104DF00026E0FFF7E7F81023A2A200210846FFF7FC
:104E0000BBF91023AAA202210020FFF7B5F9601E0A
:104E100017A951F820301AA900E012E051F820201B
:104E2000A0A103A801F0B6FF102303AA05210020CA
:104E3000FFF7A2F94FF4FA60FDF794FBFFF7C2F811
:104E400021E06F2D0FD14FF4FA70FDF78BFBFFF7C8
:104E5000B9F800208049087001207E4908700020C0
:104E6000974908700FE0752D06D14FF4FA70FDF7E1
:104E700079FBFFF7A7F806E0069506AB7D4A91A1FE
:104E8000104601F087FFFFE6611E0EAA12F821000E
:104E9000FDF7C9FE00BF611E0EAA12F82100FDF742
:104EA000C2FE834641F288300BFB00F04FF6FF71E3
:104EB00090FBF1F67248006801F05BFA07463A464B
:104EC0000B4682A107A801F065FF601E1AA951F8E0
:104ED000202069A103A801F05DFF102303AA00218F
:104EE0000846FFF749F9102307AA00213C20FFF7E5
:104EF00043F9324677A107A801F04CFF102376A2B0
:104F000002210020FFF738F9102307AA02213C20D4
:104F1000FFF732F94FF47A70FDF724FBFFF7E2FC5C
:104F20000546782D32D0232D0BD103204A49087035
:104F30006B4806604FF4FA70FDF714FBFFF742F878
:104F400024E06F2D0FD14FF4FA70FDF70BFBFFF744
:104F500039F800204049087001203E4908700020BF
:104F60005749087012E0752D10D14FF4FA70FDF713
:104F7000F9FAFFF727F8012037490870002003E00D
:104F800000213C4A1154401C0928F9DDB8E33C4893
:104F9000006801F0EEF907463A460B464BA107A818
:104FA00001F0F8FE601E1AA951F8202032A103A8D2
:104FB00001F0F0FE102303AA00210846FFF7DCF8F9
:104FC000102307AA00213C20FFF7D6F8444845A14A
:104FD000026807A801F0DEFE10233FA20221002094
:104FE000FFF7CAF8102307AA02213C20FFF7C4F8F4
:104FF000601E1AA951F820201FA103A801F0CAFEC3
:10500000102303AA04210020FFF7B6F81023194A41
:1050100004213C20FFF7B0F84FF4FA70FDF7A2FA34
:10502000FFF760FC0546782D0CD06C2D5ED1FEF7A5
:10503000C9FF104801F002F8C7B21FB10021781E65
:105040000C4A115412E1000020202025733A2573E8
:1050500025732000510000207003002020202049EB
:105060006E70757420536C6F7065000020202025D1
:10507000733A0000DC2D00202025733A0000000068
:1050800074030020202020506C6561736520496EF8
:105090007075740020202052696768742052616E18
:1050A0006765200020202020257320257300000044
:1050B000202020202041204E756D62657220200046
:1050C000500000202573257300000000252E326655
:1050D000202300002533640020566F6C743A0000D2
:1050E0007C0300202533642023000000232D7CD185
:1050F000FC4800F0A3FFC7B2012F5EDBF94802F0C5
:10510000CFFACDE9000101F047F9F7490860611EC7
:105110000AAA32F8110001F0DBF88046F248016873
:10512000404601F05FF91FD8611E0CAA32F8110049
:1051300001F0CEF88046ED480168404601F048F99C
:1051400012D8002004E00021E64A1154411CC8B2E4
:10515000B842F8DD0420E64908704FF4FA70FDF714
:1051600001FAFEF72FFF52E0FEF72CFF1023AFF2FB
:10517000EC0200210846FEF7FFFF1023AFF2EC021D
:1051800002210020FEF7F8FF601E17A951F8203019
:105190001AA951F82020AFF2F40103A801F0FAFD9A
:1051A000102303AA05210020FEF7E6FF4FF4FA6062
:1051B000FDF7D8F9FEF706FF29E0FEF703FF1023FD
:1051C000AFF2401200210846FEF7D6FF1023AFF2DF
:1051D000201202210020FEF7CFFF601E17A951F810
:1051E00020301AA951F8202000E011E0AFF24C1154
:1051F00003A801F0CFFD102303AA05210020FEF72C
:10520000BBFF4FF4FA60FDF7ADF9FEF7DBFE2DE0D2
:105210006F2D0FD14FF4FA70FDF7A4F9FEF7D2FE0F
:105220000020B34908700120B24908700020B2493B
:1052300008701BE0752D11D14FF4FA70FDF792F94B
:10524000FEF7C0FE0220AA490870002003E00021FA
:10525000A44A1154401C0928F9DD07E0069506AB65
:10526000A04AAFF2A011104601F094FD48E2611E81
:105270000EAA12F82100FDF7D6FC00BF611E0EAA8F
:1052800012F82100FDF7CFFC834641F288300BFB7A
:1052900000F04FF6FF7190FBF1F69448006801F0C2
:1052A00068F807463A460B46AFF2E01107A801F04E
:1052B00071FD601E1AA951F82020AFF2442103A805
:1052C00001F068FD102303AA00210846FEF754FFF1
:1052D000102307AA00213C20FEF74EFF8748AFF2BB
:1052E000FC11026807A801F055FD1023AFF2182247
:1052F00002210020FEF740FF102307AA02213C20D4
:10530000FEF73AFF7848006801F033F807463A465E
:105310000B46AFF2482107A801F03CFD601E1AA918
:1053200051F82020AFF2B02103A801F033FD102383
:1053300003AA04210020FEF71FFF102307AA04215F
:105340003C20FEF719FF3246AFF2782107A801F0A2
:1053500021FD1023AFF2802206210020FEF70CFF72
:10536000102307AA06213C20FEF706FF4FF47A70AF
:10537000FDF7F8F8FFF7B6FA0546782D32D0232D61
:105380000BD105205A4908705D4806604FF4FA7049
:10539000FDF7E8F8FEF716FE24E06F2D0FD14FF46D
:1053A000FA70FDF7DFF8FEF70DFE00205049087097
:1053B00001205049087000204F49087012E0752DF7
:1053C00010D14FF4FA70FDF7CDF8FEF7FBFD032086
:1053D00047490870002003E00021424A1154401C54
:1053E0000928F9DD8CE14148006800F0C2FF07465A
:1053F0003A460B46AFF22C3107A801F0CBFC601EF9
:105400001AA951F82020AFF2903103A801F0C2FC94
:10541000102303AA00210846FEF7AEFE102307AAB8
:1054200000213C20FEF7A8FE3448AFF24831026864
:1054300007A801F0AFFC1023AFF264320221002074
:10544000FEF79AFE102307AA02213C20FEF794FEE5
:105450002548006800F08DFF07463A460B46AFF23C
:10546000943107A801F096FC601E1AA951F820207B
:10547000AFF2FC3103A801F08DFC102303AA042134
:105480000020FEF779FE102307AA04213C20FEF736
:1054900073FE1B48AFF2B431026807A801F07AFC32
:1054A0001023AFF2CC3206210020FEF765FE102358
:1054B00007AA06213C20FEF75FFE40F6B830FDF754
:1054C00051F8FEF77FFD10230EA200210846FEF7DB
:1054D00053FE10230FA202210020FEF74DFE1023E1
:1054E00020E00000DC2D0020780300207403002061
:1054F0007003002051000020500000207C03002099
:105500008003002020202020202046696E697368D7
:105510002020000020202043616C69627261746960
:105520006F6E2000FEA204210020FEF725FE4FF43E
:10553000FA60FDF717F8002004E00021FC4A11543E
:10554000411CC8B20928F8DD032C06D100BFF94878
:10555000D0F800904FF0000A37E0F6480168F648AE
:10556000006800F0C4FD0746F4490968F44A12686F
:10557000881A00F0A4FE8046394600F0F0FD81460E
:10558000EC480168EC48006800F0B1FD0290EB487F
:10559000006800F094FE0090E6480168009800F072
:1055A000ACFD8046E648006800F089FE0090E248C5
:1055B0000168009800F0A1FD4146019000F097FDC0
:1055C0000746029900F0CBFD82463C220021DD48CF
:1055D00000F058FC002004E0DA49095CDA4A115472
:1055E000401C3C28F8DB002003E00021D04A115485
:1055F000401C0A28F9DB002716E0601E400000EB83
:10560000800007EB4008484600F0B3FE02460B4618
:10561000CDE90001CDA1C64801F0BCFBC448C05D86
:10562000C94901F808007F1C0A2FE6DB002003E0CF
:105630000021BF4A1154401C0A28F9DB0A2718E050
:10564000601E400000EB800007EB4008504600F071
:1056500090FE02460B46CDE90001BCA1B44801F022
:1056600099FBA7F10A00B249085CB74901F80800A4
:105670007F1C142FE4DB002003E00021AC4A11540E
:10568000401C0A28F9DB3C220021AF4800F0CBFA8D
:105690003C220021AB4800F0F5FB00271AE0A948A6
:1056A000C05DA949C95D884213D0FEF78BFC102369
:1056B000A8A200210846FEF75FFD1023A8A2022140
:1056C0000020FEF759FD4FF4FA60FCF74BFFFEF7A0
:1056D00079FC7F1C3C2FE2DBFEF774FC0020A34921
:1056E00008700120A24908700720A2490870002014
:1056F0009049086090490860914908608F490860A6
:1057000000BF1DB0BDE8F08F2DE9F04F8BB0814692
:10571000994A07CA08AB07C300241FE0600059F884
:1057200020A009EBC400D0F804B0584600F021FED8
:1057300005460E46504600F01CFE8DE8630008A8A2
:1057400050F824208DA105A801F024FB6006010E6D
:10575000102305AA0020FEF70FFD641C032CDDDBDF
:1057600041F28830FCF7FEFEFEF72CFC0020814958
:1057700008700BB0BDE8F08F10B5102383A2002194
:105780000846FEF7F9FC102383A202210020FEF751
:10579000F3FC102384A204210020FEF7EDFC10236B
:1057A00084A206210020FEF7E7FC4FF4FA60FCF724
:1057B000D9FEFEF707FC102382A200210846FEF75F
:1057C000DBFC102383A202210020FEF7D5FC10236E
:1057D00084A204210020FEF7CFFC102385A206211D
:1057E0000020FEF7C9FC41F28830FCF7BBFEFEF753
:1057F000E9FB00205F49087010BDF8B504463C2263
:105800000021504800F03EFB002003E00021484A00
:105810001154401C0A28F9DB002510E0601E4000EE
:1058200000EB800005EB40064648805D00906B462B
:105830003F4AAFF27071104601F0ACFA6D1C0A2DB0
:10584000ECDB3B4801F02CFF054600F0A5FD6D495F
:105850000860002003E00021354A1154401C0A284A
:10586000F9DB0A2510E0601E400000EB800005EB2C
:1058700040063448805D00906B462D4AAFF2BC7103
:10588000104601F087FA6D1C142DECDB284801F05E
:1058900007FF054600F080FD5A494860002003E0FC
:1058A0000021234A1154401C0A28F9DB5548F8BD51
:1058B0002DE9F041082701252FE02846FFF79DFF3D
:1058C0000646002426E056F82410681E04EB40002B
:1058D0004D4A42F82010691E04EB410152F82100A4
:1058E00000F0FBFC00EB800040000FFA80F84FEA6C
:1058F0001841681E07EB800000EB4400434A22F881
:105900001010681E07EB800000EB4400401C22F8DA
:105910001080641C022CD6DB6D1C032DCDDD77E0DE
:10592000202020202020202E2E2E2E2000000000BF
:10593000DC2D002074030020780300208003002069
:105940007C030020000C0020C40B0020252E3466B0
:10595000000000002020454550524F4D200000001F
:1059600020204552524F52200000000070030020BA
:105970005100002050000020608100082025733A6B
:10598000252E316620252E306600000020202020A4
:105990002050726573732000202020436F6E747254
:1059A0006F6C6C6572000000202020202020466F64
:1059B0007220000020202043616C6962726174696A
:1059C0006F6E0000204C65667420202D3E205048EC
:1059D00020200000205570202020202D3E204F52F6
:1059E00050200000205269676874202D3E205048E6
:1059F00020200000204F4B202020202D3E20486FEB
:105A00006D65000084030020E82D002028000020A0
:105A10000148BDE8F0810000E82D002008B5012113
:105A20004805FBF74AFA01210820FBF739FA402024
:105A3000ADF8000003208DF802001C208DF8030053
:105A40006946FC48FAF74EFD8020ADF800000320BF
:105A50008DF802001C208DF803006946F548FAF71E
:105A600041FD08BD1FB50020ADF804004BF6FF70E6
:105A7000ADF806000A20ADF808004FF48060ADF8DC
:105A80000A000001ADF80C00EB4800906946EB48B5
:105A9000FAF78FFE0121E948FAF709FF1FBD10B59B
:105AA000FFF7BCFFFFF7DEFFA020E549088010BD2F
:105AB00008B50020009000BF0121E048FAF71BFF65
:105AC0001421DE48FAF776FF0090DD4801780022C5
:105AD000DA48FAF766FF1421D848FAF76BFF00F0AE
